:100000000C948A030C94D1030C94D1030C94D10367
:100010000C94D1030C94D1030C94D1030C94D10310
:100020000C94D1030C94D1030C94E9280C94BB29B3
:100030000C940E220C94D1030C94D1030C94D10394
:100040000C94D1030C94D1030C94D1030C94D103E0
:100050000C94D1030C9476220C94D1030C94D1030C
:100060000C94D1030C94D1030C94D1030C94D103C0
:100070000C94D1030C94D1030C94D1030C94D103B0
:100080000C94700B0C94D1030C94D1030C94D103F9
:100090000C94D1030C94D1030C94D1030C94D10390
:1000A0000C94D1030C94D1030C94D103C005C20568
:1000B000C405C605C805CA05CC05CE05D805DA05B0
:1000C000DC05DE05E005E205E405E605E805F405E6
:1000D0005C1173118E1186129B13D2120B135113E4
:1000E000D118D118031903194319B41AB41AB41A40
:1000F0006319B41A101A101A801A891AB41AAD1A90
:100100001D1A1D1A1D1A1D1A1D1A1D1A1D1A1D1A37
:100110001D1A1D1A1D1A1D1A1D1A1D1A1D1A1D1A27
:100120002C1A3A1A411A481A521A3F1B3F1B511BEC
:10013000511B481B511B511B511B3F1B3F1B4D1B90
:10014000511B511B4D1B282A4F2A412B4F2A412B53
:100150009B2ABE2A412B142B232B07634236B79BC5
:10016000D8A71A39685618AEBAAB558C1D3CB7CC17
:100170005763BD6DEDFD753EF6177231BF0000008F
:10018000803F08000000BE922449123EABAAAA2A72
:10019000BECDCCCC4C3E00000080BEABAAAAAA3E8D
:1001A00000000000BF000000803F000000000008C9
:1001B0004178D3BB4387D1133D190E3CC3BD428266
:1001C000AD2B3E68EC8276BED98FE1A93E4C80EF24
:1001D000FFBE01C4FF7F3F00000000001E001F00A3
:1001E00020002100220023002400250026002700F3
:1001F0002D002E002B0014001A0008001500170017
:100200001C0018000C00120013002A002900040032
:100210001600070009000A000B000D000E000F0079
:1002200033003400E1001D001B000600190005002A
:10023000110010003600370038002800E0003500BB
:10024000E200E30003512C002C0004515000510047
:1002500052004F0035001E001F0020002100220028
:10026000230024002500260027002A002B0014006C
:100270001A00090013000A000D000F0018001C00EE
:1002800033004C0029000400150016001700070079
:100290000B00110008000C0012003400E1001D00EA
:1002A0001B000600190005000E0010003600370084
:1002B00038002800E500E000E200E30003512C00D4
:1002C0002C0004515000510052004F0035001E0018
:1002D0001F0020002100220023002400250026000A
:1002E00027002A002B0034003600370013001C00C2
:1002F00009000A00060015000F004C002900040048
:100300001200080018000C0007000B001700110075
:1003100016003800E100330014000D000E001B0031
:10032000050010001A0019001D002800E500E0007B
:10033000E200E30003512C002C0004515000510056
:1003400052004F003A003B003C003D003E003F00A1
:1003500040004100420043004400450035021E02B7
:100360001F02200221022202230224022502260269
:1003700027024C004C00000000007E00000000003E
:100380005000510052004F000000350001007A007B
:100390007B007C007D00000000000000AC00AB0092
:1003A0003100010001000100010001000100010015
:1003B00001000100A800AA00A900AE000100010090
:1003C0000100010001000100010001000100010025
:1003D00001006500000000000000000000000000B7
:1003E0000000000000002F0230024C004C003A00D8
:1003F0003B003C003D003E003F002D002E002F0042
:100400003000310001004000410042004300440040
:1004100045000000AC00AB0031000100010001000C
:10042000010001000100010001000100A800AA0074
:10043000A900AE003A003B003C003D003E003F00FA
:100440004000410042004300440045000100005CC0
:10045000015C01000100010001000000000001003A
:1004600001004C0001000100275C1D5C1E5C135C58
:100470000A5C005201520252010001000100295C95
:10048000285C245C255C2A5C2B5C010001000100D7
:100490000100010001000100010001000100010054
:1004A0000100010001000100010001004445425526
:1004B000473A20656E61626C65642E0A000A002569
:1004C00030313662003A200025303258000A722F4F
:1004D0006320303132333435363738394142434482
:1004E00045460A00617564696F20706C6179206E01
:1004F0006F746520667265713D256420766F6C3D72
:10050000256400617564696F2073746F70206E6F6D
:10051000746520667265713D256400617564696F5C
:100520002073746F7020616C6C206E6F7465730043
:100530000A002530325820006B6579626F61726461
:100540005F7265706F72743A20000A00253032586D
:10055000006B6579626F6172645F7365745F6C656F
:10056000643A20006261636B6C696768742073741D
:1005700065703A2025750A006261636B6C69676873
:100580007420746F67676C653A2025750A00626194
:10059000636B6C6967687420646563726561736519
:1005A0003A2025750A006261636B6C696768742084
:1005B000696E6372656173653A2025750A005B7325
:1005C0005D004B6579626F6172642073746172744F
:1005D0002E0A005B575D005B535D005B525D005B64
:1005E000445D005B435D00040330000000100350D5
:1005F00000720065006F006E006900630000000A71
:10060000034F004C004B00420000000403090409A2
:10061000025B00030100A0FA0904000001030101CC
:100620000009211101000122400007058103080093
:100630000A09040100010300000009211101000161
:100640002236000705820308000A0904020002039B
:100650000000000921110100012222000705830387
:100660002000010705030320000112011001000012
:100670000008EDFE61600200010203010631FF097E
:1006800074A1010975150026FF00952075088102E7
:100690000976150026FF00952075089102C0050116
:1006A0000980A10185021601002603001A81002A93
:1006B0008300751095018100C0050C0901A1018519
:1006C00003160100269C021A01002A9C027510954F
:1006D000018100C005010906A101050719E029E70C
:1006E00015002501950875018102950175088101A4
:1006F00005081901290595057501910295017503F4
:1007000091010507190029FF150026FF00950675C0
:10071000088100C011241FBECFEFDAE0DEBFCDBFDD
:1007200004B603FE27C08091190590911A05A09187
:100730001B05B0911C058730904BA740B04BD1F4FE
:100740001092190510921A0510921B0510921C05A3
:1007500014BE84B7877F84BF0FB6F894A8958091A4
:100760006000886180936000109260000FBEE0E03E
:10077000F8E3099513E0A0E0B1E0E8E9F1E602C092
:1007800005900D92A03FB107D9F725E0A0EFB3E0A7
:1007900001C01D92A931B207E1F70E9404260C9412
:1007A000CA300C940000FF93EF93E091F003F091B6
:1007B000F103309709F00995EF91FF910895FC013D
:1007C0008591803011F0EFDFFBCF0895FF27E0E245
:1007D00030E247FF0CC0419597FF09C0EDE26095FC
:1007E000709580959095611D711D811D911D27FF4C
:1007F00002C0219530E350E2AA27660F771F881FB9
:10080000991FAA1FA41710F0A41B63955A95A9F766
:10081000AA3008F0A95FA05DAF93F395611571054B
:100820008105910541F7ED3211F4EF93F395F2173D
:1008300018F43F93F395FBCF8F91B5DFFA95E1F76D
:100840000895E991F9918591803021F0853219F070
:10085000AADFF9CF089520E0E89455915532C1F30D
:10086000503311F4689455915A3348F4505390F32F
:10087000220F022E220F220F200D250FF4CF0EF48F
:10088000219589919991533619F3533729F15335AD
:1008900059F1BC0188279927E8945C3621F48991A5
:1008A000999168945591543639F446EF7EF077FF6C
:1008B0000DC08FEF9FEF0AC055374AE039F0583529
:1008C00040E121F0523642E009F00895FF93EF93A2
:1008D0007DDFEF91FF91B7CFFF93EF93FC01819103
:1008E0008030B9F360DFFBCFFF93EF9368DFF1CF88
:1008F000DF93CF93CDB7DEB72596A3DFCF91DF91FE
:1009000008956E9A769A0C94970981E0089581E093
:1009100008950C9487040E94E3130C949909CF92D4
:10092000DF92EF92FF92843030F4811105C09091F4
:100930008000977F04C083E090918000986090933E
:100940008000282F30E0AFEFBFEF0E94F72F23E0A9
:1009500030E040E050E00E94CF2F2C3784E1380790
:100960004105510530F4C90169E070E00E94A72FEC
:1009700029C0DA01C9018A50974DAF4FBF4F662792
:10098000782F892F9A2F25EF38E241E050E00E941E
:10099000CF2F69017A01CA01B9010E948B2F9B01F7
:1009A000AC01C701B6010E948B2FBB27A92F982F3E
:1009B000872F009721E0A207B10511F0BC0102C00A
:1009C0006FEF7FEF70938D0060938C00FF90EF903E
:1009D000DF90CF900895279A2F988AE08093800027
:1009E00089E1809381008FEF9FEF90938700809340
:1009F00086000C94D9220E94EB040E942E0F0C94C6
:100A0000810408950C9401050C9402050895CF9378
:100A1000DF930E942D1B0E94A8130E944022EC012C
:100A200040E063E070E084E391E00E94B10E0E9438
:100A30000605CE010E944C228A3F910538F48FE9C9
:100A40009FE00197F1F700C00000F3CF0E94710F03
:100A5000DF91CF910C949C220F931F93CF93DF9340
:100A60008C01FC01C081D181CE010E940220BE0117
:100A70000E94B206EC01B8010E948904882309F49F
:100A800067C1B801CE010E94ED0A882309F460C154
:100A9000B801CE010E944614882309F459C1B80157
:100AA000CE010E944809882309F452C1C531FCE5F2
:100AB000DF0739F50E94B420282FF8018281409188
:100AC000500350915103882379F02A7A91E009F478
:100AD00090E09093F203911102C069E201C065E3D6
:100AE000CA010E94AA210AC08091F203811102C0AA
:100AF00069E201C065E3CA010E94AC210E94812025
:100B000027C1C6318CE5D80708F095C0C130ECE5A7
:100B1000DE0779F4F8018281882309F419C18091F4
:100B2000ED0481608093ED048CEA94E00E94DF0381
:100B30000FC1C230FCE5DF0708F466C0F80182810E
:100B4000882309F469C00E944921811102C00E94D2
:100B500025210E945C2190E090930A05809309056D
:100B6000FE01E350FC45E231F10530F4EA5AFF4F53
:100B7000809109050C94F12F8091090581603BC09B
:100B8000826039C0846037C0886035C0806133C0FE
:100B9000806231C080642FC080682DC0846088600E
:100BA0008093090540E064E070E084E091E019C0C2
:100BB0008E7F21C08D7F1FC08B7F1DC0877F1BC094
:100BC0008F7E19C08F7D17C08F7B15C08F7713C0A4
:100BD0008B7F877F8093090540E062E070E084E2CC
:100BE00091E00E94B10E09C087FB222720F991E015
:100BF000922790FB87F980930905809109050E944F
:100C000060210E942D1BA4C0C115DC4561F081E06C
:100C10008093F7038093F803C801DF91CF911F9170
:100C20000F910C948504F8018281882309F490C007
:100C30000E9407058DC0C63DECE5DE0759F5F801B9
:100C40008281882361F01092F8030E9440229093E1
:100C5000F6038093F50380E20E948D1879C080919D
:100C6000F803882321F080E20E94941871C08091DB
:100C7000F5039091F6030E944C22883C910598F769
:100C800080E20E94941888E20E94371788E20E944E
:100C90002E185EC0C73DFCE5DF0708F044C0C43D28
:100CA0008CE5D80719F5F8018281882351F010925C
:100CB000F7030E9440229093F4038093F30382E0B1
:100CC000CBCF8091F70381110FC08091F3039091F6
:100CD000F4030E944C22883C910530F486E20E9485
:100CE000371786E20E942E1882E0BECFC53DDC4554
:100CF00009F08DCFF80182818111A5CF8091F80391
:100D00008111B1CF8091F5039091F6030E944C229E
:100D1000883C910508F0A7CF87E20E94371787E249
:100D20000E942E18A0CFC93DFCE5DF0731F4F80181
:100D30008281882369F080E009C0CA3DDC4509F062
:100D400066CFF8018281882319F082E00E94AC26E8
:100D500080E0DF91CF911F910F91089580E090E0A6
:100D6000089508959CE0799FF00111249CE3899FE8
:100D7000E00DF11D1124E60FF11DEE0FFF1FE452EF
:100D8000FE4F859194910895880F991FFC01E354BB
:100D9000FB4F859194910895CF93DF930E94B20603
:100DA0000E94A708EC01811521E5920708F042C0D6
:100DB000811530E5930708F01EC1883E910500F5C6
:100DC000803E910508F0BFC1883A910570F4853ADC
:100DD000910508F09DC08130910509F4B4C108F473
:100DE0006BC1049708F0AFC167C18D3B910508F452
:100DF0009AC0803C910508F45FC1805C9109EBC00A
:100E0000811540E3940780F4811550E2950708F0BE
:100E1000E1C0803F910508F44FC18F3F910511F06B
:100E200008F091C1D0658FC1811560E4960708F084
:100E3000DFC0D5C0C11589E5D80740F5C11528E543
:100E4000D20708F025C1C11534E5D30778F4C115E0
:100E500043E5D40708F001C1C11552E5D50708F0F4
:100E6000E6C0DC2FCC27C16FD06A6DC1C11565E526
:100E7000D60708F408C1C11586E5D80708F01CC1DB
:100E8000CF71DD27DC2FCC27D0625DC1CB3B2CE5B9
:100E9000D20709F408C1D8F4C93B4CE5D40709F4DA
:100EA000FCC008F0FDC0C1156AE5D60708F004C112
:100EB0008C2F8F70806E90E0906A24E0D695C79555
:100EC0002A95E1F7CF709C013C2BE9013CC1CE3B58
:100ED0008CE5D80709F4EDC060F4CC3B3CE5D307C2
:100EE00009F4E4C0CD3BDC4509F0E6C0C0E0D2ED3A
:100EF0002AC1CE0190568115904208F0DDC08D2F99
:100F00008F710E942409DD27D0628F71D82B1BC1FD
:100F1000853A910509F4D3C0863A910509F0D2C00B
:100F2000C2E8D0E410C1883A910509F4CEC0893AEC
:100F3000910509F4CDC08A3A910509F4CCC08B3AE9
:100F4000910509F4CBC08C3A910509F4CAC08B3BDA
:100F5000910509F4C9C08C3B910509F4C8C08D3ACC
:100F6000910509F4C7C0803B910509F4C6C08E3ACB
:100F7000910509F4C5C08F3A910509F4C4C0813BBD
:100F8000910509F4C3C0823B910509F4C2C0833BBB
:100F9000910509F4C1C0843B910509F4C0C0853BAB
:100FA000910509F4BFC0863B910509F4BEC0873B9B
:100FB000910509F4BDC0883B910509F4BCC0893B8B
:100FC000910509F4BBC08A3B910509F4BAC0C0E0A1
:100FD000D4E4B9C09F700E94C406EC01B4C0992744
:100FE000D3FF03C0EC01D86CAEC0EC01D06CABC039
:100FF000DF70D06AA8C0282F237081E090E002C083
:10100000880F991F2A95E2F79C689E0174E0369537
:1010100027957A95E1F72370922BCF70C695C695E8
:1010200060E2C69FE0011124C82BD92B8CC02C2F65
:101030002695269580E2289F90011124C370DD2714
:1010400081E090E0AC0102C0440F551FCA95E2F761
:10105000EA01C22BD32BDC6876C02C2F269526956F
:1010600080E2289F90011124C370DD2781E090E089
:10107000AC0102C0440F551FCA95E2F7EA01C22B2A
:10108000D32BDA6860C0DC2FCC27C46FD06A5BC07A
:10109000DC2FCC27C06FD06A56C0C0E0D4ED53C05F
:1010A000C0E0D5ED50C0C0E0D1ED4DC0C0E0D0ED06
:1010B0004AC0C0E0D3ED47C0C0E0D0E044C0C1E8C2
:1010C000D0E441C0C3E8D0E43EC0C2EED4E43BC0AB
:1010D000C9EED4E438C0CAEED4E435C0C5EBD4E4DC
:1010E00032C0C6EBD4E42FC0C3EBD4E42CC0C4EBB5
:1010F000D4E429C0C7EBD4E426C0CCECD4E423C0AC
:10110000CDECD4E420C0C3E8D5E41DC0CAE8D5E4E2
:101110001AC0C2E9D5E417C0C4E9D5E414C0C1E2DD
:10112000D6E411C0C3E2D6E40EC0C4E2D6E40BC0DC
:10113000C5E2D6E408C0C6E2D6E405C0C7E2D6E4FC
:1011400002C0CAE2D6E4CE01DF91CF910895823881
:10115000910549F1B0F48133910509F458C048F480
:101160008932910509F44EC08A32910509F454C0C0
:1011700008958533910509F440C08933910599F0AC
:101180000895833E910529F138F4803E910591F050
:10119000823E9105A1F00895863E9105F9F0873EC3
:1011A000910531F108952091090520FD3AC021FDF6
:1011B00038C008958091090580FD35C032C0809106
:1011C000090582FF32C08091090584FD30C083EE9D
:1011D00039C08091090582FD28C0F5CF80910905AD
:1011E00083FF27C08091090584FD21C087EE2AC0B6
:1011F0008091090583FD1DC0F5CF8091090585FD0E
:101200001AC01BC08091090585FD17C014C08091CC
:10121000090586FD14C015C08091090586FD11C021
:101220000EC080EE0FC089E30DC082EE0BC080E0DF
:1012300009C086EE07C089E205C085E303C08AE2E3
:1012400001C081E390E008959091090592FF0DC0DF
:10125000282F2871283019F4877F846006C0282F32
:101260002471243011F48B7F886093FF0DC0282FE8
:101270002871283119F4877E846106C0282F2471D3
:10128000243111F48B7E886194FD877E0895089542
:101290000F931F93CF93FB012281211102C0C1E064
:1012A00041C08C01C0910604C11125C086319C4506
:1012B000B1F70E94470981E0809306040E94402212
:1012C00090930504809304041092F9031092FB0399
:1012D0001092FA031092FD031092FC031092FF0388
:1012E0001092FE0310920104109200041092030465
:1012F0001092020417C080910404909105040E948A
:101300004C228C32914058F69091F903E92FF0E08D
:10131000EE0FFF1FE650FC4F118300839F5F9093F9
:10132000F903C0E08C2FCF911F910F91089508957C
:1013300008950C94980985B7806885BF85B7806843
:1013400085BFACE8B3E041E050E025E02A0F8D9185
:10135000E82FE295EF70F0E031A18F70BA0102C082
:10136000660F771F8A95E2F7CB01962F909593230E
:1013700091A392A1892B82A32A13E9CFA0E8B3E01D
:1013800041E050E02CE02A0F8D91E82FE295EF70BC
:10139000F0E031A18F70BA0102C0660F771F8A9505
:1013A000E2F7CB01962F9095932391A392A1892BDD
:1013B00082A32A13E9CFE1E1F4E0A7E0B4E01192BF
:1013C00011921D921D9274E0EB31F707C1F70C9456
:1013D000FB042F923F925F926F927F928F929F9227
:1013E000AF92BF92CF92DF92EF92FF920F931F9333
:1013F000CF93DF932CE8C22E23E0D22E07E014E037
:10140000E801EE24E394F12C662463945E01888065
:10141000998019821882D6018D916D01E82FE2958D
:10142000EF70F0E021A18F70A70102C0440F551F9B
:101430008A95E2F7CA01242B21A322A1742E70946D
:10144000272122A350EA5A95F1F790E8292E93E03C
:10145000392E20E030E0D1017D911D01472F4295CA
:101460004F7050E0DA0190965C90488159817F700E
:10147000D70102C0AA0FBB1F7A95E2F7BD01652113
:1014800041F4B701022E02C0660F771F0A94E2F7FB
:1014900002C060E070E0462B572B598348832F5FD2
:1014A0003F4F2C303105B9F691A1792271A292A15A
:1014B000892B82A32296F501808191818816990655
:1014C00041F060921B040E94402290931D0480937F
:1014D0001C04F4E0C131DF0709F098CF80911B04B0
:1014E0008823B1F080911C0490911D040E944C222D
:1014F000069770F0E1E1F4E0D8018D919D918D01A6
:1015000081939193B4E001311B07B1F710921B0452
:101510000E948B0481E0DF91CF911F910F91FF908A
:10152000EF90DF90CF90BF90AF909F908F907F9083
:101530006F905F903F902F900895E82FF0E0EE0FAE
:10154000FF1FEF5EFB4F808191810895CF92DF9264
:10155000EF92FF920F931F93CF93DF938DEC94E064
:101560000E94DF0381E1E82E84E0F82EC0E0D0E0A5
:1015700098ECC92E94E0D92E0FEB14E0DF93CF93B3
:10158000DF92CF920E94780485EC94E00E94DF0302
:10159000F701819191917F010E940B219F938F937D
:1015A0001F930F930E9478048DEB94E00E94DF0359
:1015B00021968DB79EB708960FB6F8949EBF0FBEC2
:1015C0008DBFC530D105D1F6DF91CF911F910F911D
:1015D000FF90EF90DF90CF900895FB018D312CE5C7
:1015E000920731F482818823A1F10E94EB102FC071
:1015F0008E312CE5920731F48281882351F10E94CB
:10160000FB1025C08F312CE5920741F4828188239D
:1016100001F10E94E7108111F2CFE7CF88322CE56B
:10162000920731F482818823A1F00E94141108C02E
:1016300089329C4571F48281882359F00E941D11E2
:1016400040E064E070E08CE491E00E94B10E80E044
:10165000089581E00895682F70E065547109072EA0
:10166000000C880B990B0E94902C20E030E040E4A5
:1016700051E40E94E62B9B01AC0160E070E080E049
:1016800090E40E94142E20E030E04CED53E40E94E0
:10169000A72D4FE050E00C946E10682F70E0655459
:1016A0007109072E000C880B990B0E94902C20E0EA
:1016B00030E040E451E40E94E62B9B01AC0160E085
:1016C00070E080E090E40E94142E20E030E04CEDC9
:1016D00053E40E94A72D0C94B80F0C94710F089539
:1016E0001F920F920FB60F9211244F925F926F923A
:1016F0007F928F929F92AF92BF92CF92DF92EF92A2
:10170000FF922F933F934F935F936F937F938F93AA
:101710009F93AF93BF93CF93DF93EF93FF9380910A
:101720003104882309F4ABC1C0917304D0917404CF
:101730001C161D060CF0A3C14090210450902204F9
:10174000609023047090240420E030E0A901C301DC
:10175000B2010E94A22D18160CF065C0C130D1054F
:1017600009F452C08091710490917204BE010E94EC
:10177000BB2F7C019093720480937104809033049A
:1017800090903404A0903504B090360420E030E00E
:1017900040E85FE3C501B4010E94752B60933304F8
:1017A000709334048093350490933604F701EE0F60
:1017B000FF1FEE0FFF1FE95BFB4FA301920160814A
:1017C0007181828193810E94E62B20E030E040E02D
:1017D0005EE30E94A72D9B01AC01C501B4010E94EC
:1017E000A22D18168CF4C7010196BE010E94BB2FD2
:1017F0009093720480937104109233041092340415
:101800001092350410923604E0917104F091720444
:10181000EE0FFF1FEE0FFF1FE95BFB4F6081718131
:1018200082819381E0C08091A4012197882309F4EB
:10183000BFC0C0906D04D0906E04E0906F04F09033
:10184000700420E030E0A901C701B6010E94E12B3D
:10185000882309F4A2C0FE01EE0FFF1FEE0FFF1F49
:10186000E95BFB4F80809180A280B380A501940149
:10187000C701B6010E94E12B87FF31C0A501940189
:1018800060E070E08CED93EC0E94E62B20E030E00D
:1018900040E451E40E94E62B20E030E040E05FE3CA
:1018A0000E94A72D9B01AC0160E070E080E090E415
:1018B0000E94142E9B01AC01C501B4010E94A72D0A
:1018C0009B01AC01C701B6010E94E12B87FF07C055
:1018D000A701960160E070E08CED93E439C0A501AA
:1018E0009401C701B6010E94A22D18160CF055C034
:1018F000A501940160E070E08CED93E40E94E62B7A
:1019000020E030E040E451E40E94E62B20E030E0AB
:1019100040E05FE30E94A72D9B01AC0160E070E016
:1019200080E090E40E94142E9B01AC01C501B4013B
:101930000E94A72D9B01AC01C701B6010E94A22DF8
:1019400018165CF5A701960160E070E08CED93EC51
:101950000E94E62B20E030E040E451E40E94E62BB8
:1019600020E030E040E05FE30E94A72D9B01AC0146
:1019700060E070E080E090E40E94142E9B01AC01D6
:10198000C701B6010E94A72D60936D0470936E0489
:1019900080936F04909370041EC0CC0FDD1FCC0F9A
:1019A000DD1FC95BDB4F88819981AA81BB810BC098
:1019B000FE01EE0FFF1FEE0FFF1FE95BFB4F808163
:1019C0009181A281B38180936D0490936E04A09362
:1019D0006F04B093700460916D0470916E048091F7
:1019E0006F049091700420911E0430911F042F3FCA
:1019F0004FEF340731F02F5F3F4F30931F04209398
:101A00001E040E9426116B017C0120E034E244EFA9
:101A100051E40E94E12B87FF08C086EFC82E88E2C0
:101A2000D82E84EFE82E81E4F82E20E030E040E06C
:101A300051E4C701B6010E94A72D9B01AC0160E0F3
:101A400074E284E79BE40E94E62B6B017C010E9418
:101A50005F2C70939700609396002091A5013091C0
:101A6000A6014091A7015091A801C701B6010E94AB
:101A7000A72D0E945F2C709399006093980080912D
:101A80003204882309F446C1C0902D04D0902E045E
:101A9000E0902F04F090300420E030E0A901C7016D
:101AA000B6010E94A22D1816D4F580911E049091C3
:101AB0001F048F3F2FEF920729F0019690931F0488
:101AC00080931E04C701B6010E94261120E030E079
:101AD00040E051E40E94A72D9B01AC0160E074E25C
:101AE00084E79BE40E94E62B6B017C010E945F2C43
:101AF00070939700609396002091A5013091A60104
:101B00004091A7015091A801C701B6010E94A72DDD
:101B10000E945F2C709399006093980008C0109207
:101B20009700109296001092990010929800609180
:101B30002704709128046F5F7F4F7093280460938F
:101B40002704209196003091970080E090E0232BAD
:101B500071F12091260421112AC0C0919600D091E4
:101B600097000E948E2C6B017C01BE0180E090E00A
:101B70000E948E2C9B01AC016091290470912A0473
:101B800080912B0490912C040E94E62B20E03FEFE3
:101B90004FE757E40E94A72D20E030E040E85FE3E4
:101BA0000E94742B9B01AC01C701B6010AC00E94C0
:101BB0008E2C2091290430912A0440912B045091BD
:101BC0002C040E94A22D87FDA5C0809125048F5F63
:101BD0008093250490E02091FD043091FE0482174B
:101BE0009307A0F080910405882319F01092250432
:101BF0000DC0809171008D7F809371008091900065
:101C00008F7380939000109232048CC090912604C0
:101C100080912504E091FF04F0910005911137C0F7
:101C200091E09093260481508093250448E0849F9E
:101C3000E00DF11D1124C080D180E280F380208569
:101C4000318542855385C701B6010E94E12B811180
:101C500009C010922D0410922E0410922F0410929D
:101C6000300408C0C0922D04D0922E04E0922F04BC
:101C7000F092300480E090E0A0E8BFE38093290474
:101C800090932A04A0932B04B0932C043FC010928D
:101C9000260410921F0410921E0498E0899FE00D04
:101CA000F11D112480819181A281B38180932D0443
:101CB00090932E04A0932F04B093300420E030E0E2
:101CC00040E85EE364817581868197810E94A72D3B
:101CD0006B017C018091A901682F70E080E090E0A9
:101CE0000E948E2C20E030E048EC52E40E94E62B6B
:101CF0009B01AC01C701B6010E94A72D6093290486
:101D000070932A0480932B0490932C04109228043F
:101D1000109227048091010580FD04C010923204C6
:101D200010923104FF91EF91DF91CF91BF91AF916C
:101D30009F918F917F916F915F914F913F912F91E3
:101D4000FF90EF90DF90CF90BF90AF909F908F90DB
:101D50007F906F905F904F900F900FBE0F901F90ED
:101D60001895CF92DF92EF92FF92CF93DF93EC0121
:101D70006B01F42E80912004811102C00E942E0F6D
:101D80008091010580FF63C0809171008D7F8093F9
:101D900071008091310481110E94710F81E0809364
:101DA0003204D0930005C093FF04D092FE04C09289
:101DB000FD04F09204051092330410923404109242
:101DC0003504109236041092250488819981AA81E5
:101DD000BB8180932D0490932E04A0932F04B09385
:101DE000300420E030E040E85EE36C817D818E814C
:101DF0009F810E94A72D6B017C018091A901682F12
:101E000070E080E090E00E948E2C20E030E048EC12
:101E100052E40E94E62B9B01AC01C701B6010E946F
:101E2000A72D6093290470932A0480932B04909328
:101E30002C04109228041092270480917100826073
:101E40008093710080919000806880939000DF9172
:101E5000CF91FF90EF90DF90CF9008950E9449219D
:101E6000811102C00E9425210E946E2180930105EC
:101E700080912004811129C03E9A809171008D7F4C
:101E80008093710082E0809390008AE180939100BA
:101E900081EC91E1909397008093960023EA3BE0D8
:101EA0004EE855E46091A5017091A6018091A701CB
:101EB0009091A8010E94A72D0E945F2C7093990019
:101EC0006093980081E0809320048091010580FF59
:101ED00007C040E063E070E08CE891E00C94B10E44
:101EE00008958091ED0480FF08C08BE195E09F93F9
:101EF0008F930E9478040F900F908091200481119D
:101F000002C00E942E0F10927404109273048091EC
:101F100071008D7F80937100809190008F7380930A
:101F20009000109232041092310410926D041092BD
:101F30006E0410926F041092700410926904109253
:101F40006A0410926B0410926C0410926804109250
:101F50006704E7E4F4E0A7E3B4E011921192119270
:101F600011921D921D9284E0E736F807B1F70895AB
:101F7000CF92DF92EF92FF920F931F93CF93DF9355
:101F80006B017C018091ED0480FF10C0C701B60198
:101F90000E94582C7F936F9383E095E09F938F93DB
:101FA0000E9478040F900F900F900F908091310451
:101FB000882309F48AC080912004811102C00E9404
:101FC0002E0F07E614E0C7E0D0E0A7019601F80164
:101FD00092918291729162918F010E94E12B811105
:101FE00031C0FE01EE0FFF1FEE0FFF1FE95BFB4F3D
:101FF0001082118212821382DE01AA0FBB1FA95C1C
:10200000BB4F11961C921E92C730D105E9F0219664
:1020100044815581668177814083518362837383D4
:10202000148215821682178212968D919C911397B5
:1020300011969C938E9313961C921E92129734962F
:102040001296E2CF219708F6809173049091740460
:10205000019797FD05C0909374048093730404C0A6
:10206000109274041092730480917304909174041C
:1020700020917104309172042817390724F01092CE
:10208000720410927104892B01F5809171008D7F8B
:1020900080937100809190008F73809390001092D4
:1020A0006D0410926E0410926F04109270041092DE
:1020B000690410926A0410926B0410926C041092DE
:1020C00068041092670410923104DF91CF911F9140
:1020D0000F91FF90EF90DF90CF900895CF92DF9215
:1020E000EF92FF92CF93DF936B017C01D42FC52F2A
:1020F0008091ED0480FF14C05F934F93C701B60138
:102100000E94582C7F936F9384EE94E09F938F935B
:102110000E9478040F900F900F900F900F900F90E7
:1021200080912004811102C00E942E0F8091010530
:1021300080FF46C0809173049091740408970CF05E
:102140003FC0809171008D7F809371008091320437
:1021500081110E94710F81E08093310410921F045D
:1021600010921E0420E030E0A901C701B6010E94D0
:10217000A22D1816DCF48091730490917404FC0174
:10218000EE0FFF1FEE0FFF1FE95BFB4FC082D182F6
:10219000E282F382FC01EE0FFF1FE95CFB4FD0836C
:1021A000C1830196909374048093730480917100AD
:1021B000826080937100809190008068809390008D
:1021C000DF91CF91FF90EF90DF90CF9008958091B5
:1021D000010581700895809101058160809301055A
:1021E0000E9472210E946F0B40E062E070E08CE779
:1021F00091E00C94B10E40E062E070E08CE691E07A
:102200000E94B10E2FEF81EE94E02150804090406B
:10221000E1F700C000000E94710F809101058E7FE0
:10222000809301050C9472218091750490E00196D1
:10223000877099278093750408958091750490E0C4
:102240000796877099278093750408958F929F92BF
:10225000AF92BF92CF92DF92EF92FF92CF93DF9334
:102260006B017C01C0911E04D0911F04BE0180E06F
:1022700090E00E948E2C4B015C01A701960160E06A
:1022800070E08CE594E40E94E62B9B01AC01C50153
:10229000B4010E94A72D0E945F2C9B01E091750460
:1022A0008E2E912C48E08416910408F044C2F4016B
:1022B000E859FF4F0C94F12F1092A40180E090E0B8
:1022C000A0E0BFE38093A5019093A601A093A7018E
:1022D000B093A801109221041092220410922304BA
:1022E0001092240428C21092A4011092210410928A
:1022F000220410922304109224046431710528F4FE
:102300006A30710508F449C104C0693C710508F0E0
:1023100044C180E090E0A0E8BEE373C01092A40145
:10232000109221041092220410922304109224048B
:1023300020E030E040EA52E4C701B6010E94E12B00
:1023400087FDF9C120E030E040E253E4C701B60167
:102350000E94E12B87FF2FC00E945D3068E270E091
:102360000E94BB2FBC01645C7F4F072E000C880BC2
:10237000990B0E94902C6B017C0180911E0490911E
:102380001F048B309105C8F18531910508F080C19B
:1023900065E170E0681B790B80E090E00E948E2C74
:1023A00020E030E040E05FE30E94A72D20E030E035
:1023B00040E251E4A8C020E030E040EA53E4C70125
:1023C000B6010E94E12B87FF2CC00E945D3068EEB1
:1023D00073E00E94BB2FBC0168517C4F072E000C9C
:1023E000880B990B0E94902C6B017C0180911E043C
:1023F00090911F048630910568F480E090E0A0E0A1
:10240000BFE38093A5019093A601A093A701B09389
:10241000A80191C18531910508F03AC165E170E0EC
:1024200062C020E030E040E254E4C701B6010E94FF
:10243000E12B87FF2FC00E945D3060ED77E00E94A6
:10244000BB2FBC016854744F072E000C880B990BEE
:102450000E94902C6B017C0180911E0490911F04BE
:102460008031910550F28531910508F011C165E187
:1024700070E0681B790B80E090E00E948E2C20E0D9
:1024800030E040E05FE30E94A72D20E030E040EA2A
:1024900050E439C020E030E040EA54E4C701B6011E
:1024A0000E94E12B87FF47C10E945D3060ED77E01D
:1024B0000E94BB2FBC016854744F072E000C880B80
:1024C000990B0E94902C6B017C0180911E049091CD
:1024D0001F048432910508F490CF8333910508F0EE
:1024E000D7C063E370E0681B790B80E090E00E9446
:1024F0008E2C20E030E040E05FE30E94A72D20E03A
:1025000030E040E751E40E94E62B7CC041E040937C
:10251000A40110922104109222041092230410921C
:1025200024046431710540F46A30710560F520E0DF
:1025300030E040E85EE32BC0693C710508F0A8C0BC
:1025400080E090E00E948E2C20E030E040EA51E4F0
:102550000E94742B20E030E044E353E40E94E62B19
:102560009B01AC010E94A72D20E030E040E05EE33B
:102570000E94A72D9B01AC0160E070E080E09EE32B
:102580000E94742B3FC020E030E040E05FE3C701D1
:10259000B6010E94A72D6B017C0180E090E0A0E0D5
:1025A000BEE32FCF21E02093A401109221041092CA
:1025B000220410922304109224044AE0469F9001C2
:1025C000479F300D1124C90168EB7BE00E94A72FC3
:1025D000BC016C5D754077FF03C071956195710911
:1025E000072E000C880B990B0E94902C2EE333ECE5
:1025F0004EE259E30E94A72D20E030E040EC5EE37C
:102600000E94752B6093A5017093A6018093A7018A
:102610009093A80190C081E08093A40110922104BE
:10262000109222041092230410922404CE0183708D
:102630009927892BE1F0BE016170772780E090E057
:102640000E948E2C20E030E040E05EE30E94A72D47
:1026500020E030E040E45FE30E94752B6093A50129
:102660007093A6018093A7019093A8010CC080E00D
:1026700090E0A0E0BFE38093A5019093A601A09312
:10268000A701B093A801C770DD27CD2B09F053C077
:102690001092A5011092A6011092A7011092A80114
:1026A0004AC041E04093A4011092210410922204F8
:1026B0001092230410922404812C912CA12C9FE3CE
:1026C000B92E8092A5019092A601A092A701B09286
:1026D000A8012739310578F180E090E00E948E2C26
:1026E00020E030E047E153E40E94742B20E030E02A
:1026F0004AE754E40E94E62B20E030E048E452E44C
:102700000E94A72D20E030E040EA51E40E94D62C40
:102710000E94582C660F771F660F771FFB01EF563C
:10272000FC4F2081318142815381C701B6010E9453
:10273000A72D6B017C01C701B601DF91CF91FF90FE
:10274000EF90DF90CF90BF90AF909F908F900895C3
:1027500080918E0481110C946D0B089521E08F3FC0
:10276000910508F020E0822F08950C94AE130E948A
:10277000A81310928E0440E068E070E08AE292E0D4
:102780000C94B10E10928D0440E068E070E08AEA8B
:1027900091E00C94B10E0E94A81320914C0330E0FC
:1027A0002F5F3F4F2370332720934C0348E2429F13
:1027B000C001439F900D112440E065E070E0865514
:1027C0009D4F0C94B10ECF9380918A04882309F415
:1027D00041C08091760490917704009781F40E9423
:1027E000402290937704809376042091780430E01F
:1027F0002115310571F48091790490E00BC00E949D
:102800004C2220914A0330914B032817390738F3A3
:1028100021C0C9010197FC01E658FB4F8081F901F5
:10282000E658FB4FC08190918E0491110E944D0B90
:1028300080918E04882319F08C2F0E942B0B80919D
:10284000780490E001966091790470E00E94BB2FBB
:1028500080937804CF910895089581E080938E0449
:1028600040E068E070E08AE692E00E94B10E0C94CD
:102870002C14089581E080938D0440E068E070E0BE
:102880008AEE91E00E94B10E0C943914EF92FF92FF
:102890001F93CF93DF93CDB7DEB7A3970FB6F8940E
:1028A000DEBF0FBECDBF7C0184322CE5920741F420
:1028B000FB018281882309F448C00E942D14A2C024
:1028C0008532FCE59F0739F4FB0182818823E9F119
:1028D0000E94B71397C08632FCE59F0749F4FB01BD
:1028E0008281882391F180918E048111F1CFE5CF0F
:1028F0008A32FCE59F0739F4FB018281882329F1A4
:102900000E943A147FC08B32FCE59F0739F4FB012B
:1029100082818823D1F00E94C21374C08C32FCE5FE
:102920009F0749F4FB018281882379F080918D040F
:102930008111F1CFE5CF87329C4539F4FB018281CB
:10294000882319F00E94CB135DC040918E04411181
:1029500005C080918D04882309F4D1C0FB01528108
:10296000552309F451C0F0EEEF16F10461F40E9412
:10297000A81381E080938C0410928B0410928A0437
:10298000109279043FC022EEE216F10471F40E9425
:10299000A81380918C04882319F081E080938B0424
:1029A00010928C0410928A042DC033EEE316F104C9
:1029B00091F480918B04882339F10E94A81310921E
:1029C0008C0481E080938A0410927804109277043A
:1029D0001092760417C082E5E816F10431F4809174
:1029E0004A0390914B030A9709C0E1E5EE16F10402
:1029F00059F480914A0390914B030A9690934B03AC
:102A000080934A0380E07CC080914C0310914F0377
:102A1000811108C0FB012081120F135080914D03DA
:102A2000180F43C0813091F4FB012081120F105E1A
:102A300020914D03120F818125E030E0281B3109E0
:102A4000822F880F880F280F120F38C0823071F440
:102A5000FB012081120F105E90914D03190F21810F
:102A600085E090E0821B9109F7E025C0833031F5C5
:102A700083E2EDE5F3E0DE01119601900D928A9577
:102A8000E1F71350FB01808121E030E02C0F3D1F66
:102A9000280F311DC90120914D0330914E03FC01D7
:102AA000E20FF31F2081120FFB01218185E090E0EE
:102AB000821B9109FCE08F9F100D11245523A1F07A
:102AC000442319F0812F0E942B0B80918C048823C2
:102AD00081F080917904E82FF0E0E658FB4F1083F5
:102AE0008F5F8093790405C0442319F0812F0E94E1
:102AF0004D0BC7010E94B51391E0892701C081E009
:102B0000A3960FB6F894DEBF0FBECDBFDF91CF9175
:102B10001F91FF90EF9008959093940480939304F5
:102B20000895E0919304F0919404309721F001907E
:102B3000F081E02D099480E00895EF92FF920F93C9
:102B40001F93CF93DF93E0919304F0919404309717
:102B5000B1F18C010280F381E02D09958091ED04A3
:102B600082FF2DC080FF04C088E395E00E94DF0350
:102B7000E80118E082E3E82E85E0F82E8091ED046C
:102B800080FF0BC088811F928F93FF92EF920E946B
:102B900078040F900F900F900F9011502196111103
:102BA000EDCF8091ED0480FF0AC080E395E0DF91D6
:102BB000CF911F910F91FF90EF900C94DF03DF9165
:102BC000CF911F910F91FF90EF9008952091910464
:102BD000309192048217930771F09093920480933E
:102BE0009104E0919304F0919404309721F00680D1
:102BF000F781E02D0994089520918F04309190047D
:102C00008217930771F09093900480938F04E09162
:102C10009304F0919404309721F00084F185E02D25
:102C20000994089508950C94121681E008950E9465
:102C300037220E949B090E94C0220C94D922CF9374
:102C4000C82F8091ED0482FF1EC080FF04C081E583
:102C500095E00E94DF038091ED0480FF0CC01F927D
:102C6000CF938CE495E09F938F930E9478040F900C
:102C70000F900F900F908091ED0480FF04C08AE4C4
:102C800095E00E94DF038C2FCF910C9404054F92A6
:102C90005F927F928F929F92AF92BF92CF92DF927C
:102CA000EF92FF920F931F93CF93DF93CDB7DEB7D1
:102CB0002A970FB6F894DEBF0FBECDBF0E94E90978
:102CC0000E941516811111C08FEF89838A831B82A0
:102CD0000E9440228160782F9D838C8349815A8194
:102CE0006B818D810E94031757C096E9C92E94E02D
:102CF000D92E00E010E0AA24A394B12C702E802FCE
:102D00000E949D0A4C01F601419051906F014826A6
:102D100059264114510431F40F5F1F4F053011053E
:102D200069F7D2CF8091ED0481FD0E94A60A20E0D0
:102D300030E07501022E02C0EE0CFF1C0A94E2F78F
:102D4000C70184219521892B09F12E837F828E2052
:102D50009F2091E0892809F490E098870E94402202
:102D60008160782F9A8789874E815F8168858A85FF
:102D70000E940317000F111FF801EA56FB4F8081D4
:102D80009181E826F926F182E08206C02F5F3F4F4D
:102D90002C30310571F6C0CF109195040E94911529
:102DA0001817D9F00E949115809395042A960FB6B2
:102DB000F894DEBF0FBECDBFDF91CF911F910F9171
:102DC000FF90EF90DF90CF90BF90AF909F908F904B
:102DD0007F905F904F900C941F162A960FB6F89430
:102DE000DEBF0FBECDBFDF91CF911F910F91FF903E
:102DF000EF90DF90CF90BF90AF909F908F907F909B
:102E00005F904F900895CF93DF93CDB7DEB72B97A8
:102E10000FB6F894DEBF0FBECDBF4F8358876987CA
:102E20007A878B87DE01119686E0FD0111928A95E3
:102E3000E9F785E0FE01379601900D928A95E1F75A
:102E400049815A816B817C818D819E810E94D41D34
:102E50002B960FB6F894DEBF0FBECDBFDF91CF919A
:102E60000895FC01808191810E944120089588236A
:102E700009F4F3C0682F8238C1F40E94911581FDD6
:102E8000ECC069E380915003909151030E94AA2104
:102E90000E9481202FEF81EE94E0215080409040ED
:102EA000E1F700C0000069E319C08338F9F40E941B
:102EB000911580FDD2C063E580915003909151033C
:102EC0000E94AA210E9481202FEF81EE94E02150E0
:102ED00080409040E1F700C0000063E5809150031E
:102EE000909151030E94AC210C9481208438C1F44C
:102EF0000E94911582FDB1C067E4809150039091CA
:102F000051030E94AA210E9481202FEF81EE94E0BC
:102F1000215080409040E1F700C0000067E4DECF20
:102F20008CEF860F813A38F48091500390915103D1
:102F30000E94AA21D9CF80E2860F883048F46770BA
:102F400081E001C0880F6A95EAF70E94B720CCCFD4
:102F50008BE5860F833070F4653A29F0663A31F0DC
:102F600083E890E005C081E890E002C082E890E04C
:102F70000C94E61588E5860F853108F06EC0683A36
:102F800061F1693A69F16A3A71F16B3A79F16C3A37
:102F900081F16B3B89F16C3B91F16D3A99F1603BAA
:102FA000A1F16E3AA9F16F3AB1F1613BB9F1623B1F
:102FB000C1F1633BC9F1643BD1F1653BD9F1663B9B
:102FC000E1F1673BE9F1683BF1F1693BF9F16A3BFB
:102FD00009F43FC080E090E03EC082EE90E03BC04C
:102FE00089EE90E038C08AEE90E035C085EB90E045
:102FF00032C086EB90E02FC083EB90E02CC084EBD6
:1030000090E029C087EB90E026C08CEC90E023C0D4
:103010008DEC90E020C083E891E01DC08AE891E04B
:103020001AC082E991E017C084E991E014C081E2FE
:1030300092E011C083E292E00EC084E292E00BC005
:1030400085E292E008C086E292E005C087E292E065
:1030500002C08AE292E00C94FC150895882309F4DA
:103060005BC0682F823879F40E94911581FF54C0AB
:1030700069E380915003909151030E94AA210E941C
:10308000812069E310C08338B1F40E94911580FF5C
:1030900043C063E580915003909151030E94AA219F
:1030A0000E94812063E580915003909151030E941A
:1030B000AC210C948120843879F40E94911582FF10
:1030C0002BC067E480915003909151030E94AA2184
:1030D0000E94812067E4E7CF8CEF860F813A18F3D6
:1030E00080E2860F883048F4677081E001C0880F65
:1030F0006A95EAF70E94BD20DCCF8BE5860F83300E
:1031000020F480E090E00C94E615685A653120F4D4
:1031100080E090E00C94FC150895882321F00E9433
:10312000B7200C9481200895882321F00E94BD20AF
:103130000C94812008954F925F926F927F92BF927C
:10314000CF92DF92EF92FF920F931F93CF93DF9373
:103150007C01D62FC72FFC01058102950F701281CB
:1031600011110E94D4200E947A20882379F0112323
:1031700069F080E28D0F883048F082E00E94632081
:103180000E947A2091E0B82EB92601C0B12CCC2E35
:10319000C2948FE0C822D12CF601E059FF4F0C9465
:1031A000F12F8C2F807FCF70882311F0C295C07FC4
:1031B000112399F0CC2309F48EC180E28D0F883061
:1031C00010F0D11104C08C2F0E94B72003C08C2FA7
:1031D0000E94C7200E9481207EC18D2F0E942E1840
:1031E000CC2309F4C1C180E28D0F883010F0D111D9
:1031F00004C08C2F0E94BD2003C08C2F0E94CD20C4
:103200000E948120B1C18C2F807FCF70803211F05D
:10321000C295C07FDD2319F0D130C9F022C011233F
:1032200071F0002341F0013031F40E94ED208C2B2D
:103230000E94E72099C10E94ED208C2B1DC0002325
:1032400019F0013009F490C10E94EA201AC011233C
:1032500021F0063008F088C10EC0053008F084C1A6
:1032600010C0112361F0002331F0F701858180FF48
:1032700032C18F7085838C2F0E948D1875C101110A
:103280003BC18C2FE6C08C2F86958695837090E08D
:10329000009719F0019761F067C1112321F08D2F7C
:1032A0009C2F937002C080E090E00E94E6156CC1F4
:1032B000112321F08D2F9C2F937002C080E090E0AD
:1032C0000E94FC1561C18C2F837009F050C0111150
:1032D00057C18D2F829586958770880F880F9D2FF7
:1032E0009F70492E512C612C712C082E04C0440C67
:1032F000551C661C771C0A94D2F7D4FF14C00FE04B
:1033000010E020E030E0B901A80104C0440F551FCF
:10331000661F771F8A95D2F7CB01BA016095709529
:103320008095909503C060E070E0CB01C695C6958E
:10333000C370D0E0C230D10561F0C330D10581F057
:103340006429752986299729219771F00E94171FF2
:1033500017C164297529862997290E94291F10C140
:103360000E94171FC301B2010E94051F09C111234A
:1033700019F08C2F817001C08695882309F400C153
:103380008D2F829586958770880F880F9D2F9F704F
:10339000492E512C612C712C082E04C0440C551C54
:1033A000661C771C0A94D2F7D4FF14C00FE010E01B
:1033B00020E030E0B901A80104C0440F551F661F8A
:1033C000771F8A95D2F7CB01BA01609570958095E9
:1033D000909503C060E070E0CB01C695C695C370C0
:1033E0004C2F50E04230510569F04330510589F0CF
:1033F00064297529862997294130510571F00E9469
:10340000DD1FBEC064297529862997290E94EF1FF8
:10341000B7C00E94DD1FC301B2010E94CB1FB0C024
:103420008D2F90E0FC01E05EF109E531F10508F037
:103430004EC0E058FF4F0C94F12FDF708C2F8F712E
:10344000112321F00E94641F8D2F16CF0E94851F2B
:103450008D2F0E94941888C0112341F0053008F088
:1034600083C08C2F8F710E94AA1F7EC0063008F087
:103470007BC0F7CF112339F08C2F8F710E94641F0E
:1034800073C01123C9F38C2F8F710E94851F6CC0EC
:10349000112329F08C2F8F710E944F1F65C00E944D
:1034A0004A1F62C0112349F0CF718C2F0E94641F04
:1034B00063E08C2F0E945A2057C081E00E94632055
:1034C000023008F451C082E00E9463204DC01123F5
:1034D00031F0002389F28D2F0E94371745C0002359
:1034E00091F2D93349F45FEF67EE73E051506040D9
:1034F0007040E1F700C000008D2F0E942E1834C0EC
:103500004C2F4F706D2FC7010E94AE060E94781E8F
:103510003BC0111139C0CF70D0E0C230D10599F055
:103520003CF4209769F02197F9F40E9426232CC0DF
:10353000C430D10571F054F02597B1F480E00AC091
:103540000E94F62221C00E9455231EC00E948223A1
:103550001BC083E00E94B82317C04C2F4F706D2F03
:10356000C7010E94B10610C088E0C816D10441F01E
:103570005CF0EAE0CE1AD108F2E0CF16D10420F4D4
:103580000E9491150E940405BB20F1F00E94562074
:1035900080FD1AC0F70112820E9450200E94641F11
:1035A000C7010E94F21A0E945020DF91CF911F9113
:1035B0000F91FF90EF90DF90CF90BF907F906F9032
:1035C0005F904F900C94851FDF91CF911F910F91C9
:1035D000FF90EF90DF90CF90BF907F906F905F90C3
:1035E0004F9008950F931F93CF93DF93EC01888141
:1035F00099812B813C81232BB9F09F3F11F48F3FA0
:1036000099F0CE010E942C05882371F068817981A0
:103610008A810E944C208C010E9401200E94021F7E
:10362000B801CE010E949B18DF91CF911F910F919D
:1036300008950E94D4200E94E4208091500390912C
:1036400051030E94AE210E94812080E090E00E9400
:10365000E61580E090E00C94FC150E94C4200C94C8
:10366000191B0E944120E92FE295EF70F0E032979C
:10367000EE30F105B0F4EB56FF4F0C94F12F803F84
:1036800091F018F4803E68F40EC0843F51F40BC0F2
:10369000803E48F0813F29F406C093FB882780F9DB
:1036A000089580E0089581E00895CF93DF9300D0DE
:1036B00000D01F92CDB7DEB70F900F900F900F90F4
:1036C0000F90DF91CF910895CF93DF9300D000D07A
:1036D00000D0CDB7DEB726960FB6F894DEBF0FBE8A
:1036E000CDBFDF91CF9108951F93CF93DF93C0910A
:1036F000A00416E08091A104C81799F0D0E01C9FA7
:10370000F0011D9FF00D1124EE55FB4F40815181BA
:1037100062817381848195810E94641B2196C770A8
:10372000E9CFDF91CF911F9108954091D20450913C
:10373000D3046091D4047091D5048091D604909103
:10374000D7040C94641B8091D70482958F7009F084
:1037500054C08091D404882309F44FC08091A00400
:10376000A091A1046091D2047091D3044091D5043A
:103770005091D604B6E08A1709F43FC090E0411595
:103780005105C1F17F3F11F46F3FA1F1B89FF001E6
:10379000B99FF00D1124EE55FB4F218172132AC001
:1037A0002081621327C02281211124C0238134810A
:1037B0002417350710F421503109241B350B283C00
:1037C0003105C0F42091D7042F7020612093D704D5
:1037D00026E0289FF001299FF00D1124E955FB4FA9
:1037E00080818F708061808382ED94E00E94F21A64
:1037F0000C94741B01968770BECF0895CF92DF9210
:10380000EF92FF920F931F93CF93DF93CDB7DEB765
:1038100062970FB6F894DEBF0FBECDBF8C0185E076
:10382000F801DE011D9601900D928A95E1F7D8010D
:103830004C9111965C91119712966C911297139678
:10384000CD90DC9014973091D2047091D304809184
:10385000D5049091D604009709F46BC17F3F19F409
:103860003F3F09F466C1E090D404EE2009F4C0C0E3
:103870002091D704C816D90628F0F601E81BF90BE9
:10388000CF0104C0809590958C0D9D1DFF24F3946D
:10389000883C910578F0F12C207F09F0C6C07C2D82
:1038A000D98AC88A89890E94551B82ED94E00E94BA
:1038B000F21AB1C0822F807F09F046C0751314C080
:1038C000341312C0611110C02F7020612093D704EF
:1038D0000E94951B82ED94E00E94F21A8091D70419
:1038E000D80115968C932EC0CD2819F15F3F11F4A5
:1038F0004F3FF9F0F62E61111CC08091A004209179
:10390000A10436E0821709F45AC090E0389FF00114
:10391000399FF00D1124EE55FB4F7181571306C0EE
:103920007081471303C07281711103C001968770C3
:10393000E9CFF62E662309F427C18091D704816070
:103940008093D704F12C20C1751308C0341306C02E
:10395000611104C08091D704D801C3C04D875E8730
:103960008D859E856A8B0E94311B6A898823E1F1CF
:103970006623D1F12091D704822F82958F7090E039
:10398000029774F08091D2049091D30498878F832A
:103990001986DB86CA862C87CE0107960E94F21A0A
:1039A00086E0F801A2EDB4E001900D928A95E1F76E
:1039B0000E94A31B0E94951BFF24F394E5C04D8732
:1039C0005E878D859E850E944120292F22952F702C
:1039D00030E0223031050CF0CBC09F7009F0C5C03B
:1039E000805E883008F4D0C0C8010E94F21AE4CF8B
:1039F000C816D90608F453C0F601E81BF90BCF012D
:103A0000883C910508F450C0F12C7C2DD98AC88AD5
:103A100089890E94551BE2EDF4E086E0DF011D92EA
:103A20008A95E9F70E94951BAFC0751314C0341333
:103A300012C0611110C08091D704F8018583C801BC
:103A40000E94F21A86E0E2EDF4E0DF011D928A9511
:103A5000E9F7FE2C99C04D875E878D859E856A8B20
:103A60000E94311B6A89882309F4BECF662309F4BA
:103A7000BBCF2091D704822F82958F7090E0029760
:103A80000CF48ECF8091D2049091D3049A838983D1
:103A90001B82DD82CC822E83CE0101967FCF809562
:103AA00090958C0D9D1DACCFF62E662309F49CCF0E
:103AB00075132EC034132CC02091D70420FD1FC0D5
:103AC000822F82958F70D9F0D80115962C93159777
:103AD0008F3049F08F5F982F9295907F822F8F7053
:103AE000892B15968C93C8010E94F21A86E0F80182
:103AF000A2EDB4E001900D928A95E1F793CF86E0B4
:103B0000F801A2EDB4E001900D928A95E1F73CC076
:103B10004D875E878D859E850E94311B811140CF28
:103B20008091D70481608093D704C8010E94F21A63
:103B30002BC0662309F458CF4D875E878D859E85FF
:103B40000E94311BF82E882309F44ECF86E0F8013D
:103B5000A2EDB4E001900D928A95E1F782ED94E038
:103B60000E9431170E94A31B5DCF811139CF0CC079
:103B7000243031050CF038CF9F7009F431CFF801B3
:103B80009581907F09F02CCF8F2D62960FB6F89417
:103B9000DEBF0FBECDBFDF91CF911F910F91FF9080
:103BA000EF90DF90CF9008951F93CF93DF93CDB721
:103BB000DEB72C970FB6F894DEBF0FBECDBF4F8394
:103BC000588769877A878B879C87CE0107960E94E2
:103BD000FE1B882369F08F8198852A853B85232BDE
:103BE000F1F19F3F09F063C08F3F09F060C037C01B
:103BF00086E0FE013796DE01119601900D928A95BE
:103C0000E1F76F817885EA85FB85309741F17F3F49
:103C100011F46F3F21F12091A10430E0C901019618
:103C2000877099274091A00450E08417950709F404
:103C300047C069837A83FD83EC8396E0929FD0012D
:103C4000939FB00D1124AE55BB4FFE0131960190EC
:103C50000D929A95E1F78093A1040E94741B16E0DF
:103C60008091A0049091A1048917C1F1189FC0010F
:103C700011248E559B4F0E94FE1B882379F1E09101
:103C8000A0041E9FF0011124EE55FB4F408151818D
:103C900062817381848195810E94641B8091A0045C
:103CA00090E00196877099278093A004D9CF4F8127
:103CB000588569857A858B859C850E94641BCFCF4A
:103CC0000E942D1B1092A1041092A004E2EDF4E0DA
:103CD00086E0DF011D928A95E9F7C1CF2C960FB6D9
:103CE000F894DEBF0FBECDBFDF91CF911F91089535
:103CF000EF92FF920F931F93CF93DF938C01892B49
:103D000009F46CC0F12CEE24E394E8012196F8014B
:103D10008491843740F4843008F051C0813081F0C0
:103D2000823019F15BC0853709F444C0A8F19CE7E3
:103D3000980F903708F052C08F770E942E1841C01C
:103D40000E5F1F4FFE01C49180E28C0F883048F453
:103D5000C7708E2D01C0880FCA95EAF70E94D72040
:103D600014C08C2F0E9437172DC00E5F1F4FFE010D
:103D7000C49180E28C0F883058F4C7708E2D01C03A
:103D8000880FCA95EAF70E94DD200E9481201AC0A0
:103D90008C2F0E942E1816C00E5F1F4FFE01C4917B
:103DA000CC2381F08FE99FE00197F1F700C000007C
:103DB000C150F6CF0E5F1F4FFE01F49003C00E946A
:103DC00037178E018F2D882309F49FCFEFE9FFE08D
:103DD0003197F1F700C000008150F5CFDF91CF910E
:103DE0001F910F91FF90EF90089508950E94F51E86
:103DF0006093DC047093DD048093DE049093DF0411
:103E00000C94191B08950C94F61E0F931F930091A8
:103E1000DC041091DD042091DE043091DF04602B7E
:103E2000712B822B932B1F910F910C94F61E0F93E5
:103E30001F930091DC041091DD042091DE04309189
:103E4000DF0460237123822393231F910F910C942D
:103E5000F61E0F931F930091DC041091DD04209156
:103E6000DE043091DF0460277127822793271F919A
:103E70000F910C94F61E08950C943B1F0E943C1F5A
:103E80006093D8047093D9048093DA049093DB0490
:103E90000C94191B60E070E0CB010C943E1F0F9353
:103EA0001F9341E050E060E070E08A019B0104C094
:103EB000000F111F221F331F8A95D2F7C901B801C5
:103EC0001F910F910C943E1F0F931F9341E050E000
:103ED00060E070E004C0440F551F661F771F8A958D
:103EE000D2F78091D8049091D904A091DA04B091CE
:103EF000DB048A019B01082B192B2A2B3B2BC901C0
:103F0000B8011F910F910C943E1F0F931F9341E036
:103F100050E060E070E004C0440F551F661F771F3B
:103F20008A95D2F740955095609570958091D80408
:103F30009091D904A091DA04B091DB048A019B012D
:103F4000082319232A233B23C901B8011F910F918C
:103F50000C943E1F0F931F9341E050E060E070E02F
:103F600004C0440F551F661F771F8A95D2F78091B2
:103F7000D8049091D904A091DA04B091DB048A01AD
:103F80009B01082719272A273B27C901B8011F9140
:103F90000F910C943E1F0F931F930091D804109122
:103FA000D9042091DA043091DB04602B712B822B31
:103FB000932B1F910F910C943E1F0F931F93009111
:103FC000D8041091D9042091DA043091DB046023E5
:103FD0007123822393231F910F910C943E1F0F9303
:103FE0001F930091D8041091D9042091DA043091E4
:103FF000DB0460277127822793271F910F910C9470
:104000003E1F0895CF92DF92EF92FF920F931F937E
:10401000CF93DF938C01C090DC04D090DD04E0905E
:10402000DE04F090DF048091D8049091D904A0912F
:10403000DA04B091DB04C82AD92AEA2AFB2ACFE1A4
:10404000D0E0D701C6010C2E04C0B695A795979570
:1040500087950A94D2F780FF06C0B8018C2F0E9482
:10406000CC06019721F4219760F780E001C08C2FE6
:10407000DF91CF911F910F91FF90EF90DF90CF9044
:104080000895CF93DF93EC010E940220BE010E94AD
:10409000CC06DF91CF910895CB010E944120089575
:1040A0008091E00485958595859508958091E0043B
:1040B0008770089598E0899F90011124262B209302
:1040C000E0040C94641F2091E00480958223809387
:1040D000E004982F977069F430E0482F082E000C08
:1040E000550B2417350729F08595859585950C94F2
:1040F000851F08959091E004977081E009F480E0B5
:104100000895E0915003F09151038091EC04808375
:10411000E0915003F091510390818091EB04892B41
:104120008083E0915003F091510390818091EA04E3
:10413000892B80838091E104882381F0E0915003F2
:10414000F09151039081892B80838091500390914D
:1041500051030E94772181111092E1048091500354
:10416000909151030C949D158091EC0408959091C9
:10417000EC04892B8093EC04089580959091EC04D5
:1041800089238093EC0408951092EC040895909193
:10419000EB04892B8093EB04089580959091EB04B8
:1041A00089238093EB0408951092EB040895909175
:1041B000EA04892B8093EA04089580959091EA049B
:1041C00089238093EA0408951092EA040895809365
:1041D000E10408951092E10408958091E1040895A6
:1041E0009093F1038093F00308958295982F9C7C1F
:1041F000392F36953695282F237344E0249FC0012C
:104200001124932F982B292F2A7A2695892F85758B
:10421000880F822B08951F93CF93DF931F92CDB702
:10422000DEB799830E94F520182F9981892F0E946B
:10423000F520212F30E0322F2227A901482BCA0177
:104240000F90DF91CF911F9108956DEE7EEF80E08A
:1042500090E00E948D3060E082E090E00E947B3030
:1042600060E083E090E00E947B3060E084E090E0DA
:104270000E947B3060E085E090E00E947B3060E04F
:1042800086E090E00E947B306FEF87E090E00C9436
:104290007B3080E090E00E94753021E08D3E9E4FA3
:1042A00009F020E0822F089582E090E00C946D30B8
:1042B00083E090E00C946D3084E090E00C946D30DD
:1042C000682F84E090E00C947B3086E090E00C94C2
:1042D0006D30682F86E090E00C947B3087E090E0B2
:1042E0000C946D30682F87E090E00C947B30FC01DB
:1042F00031969C01285F3F4F80E0919191118F5F33
:10430000E217F307D1F708959C01FC0132969FEF65
:1043100080E04191461789F09F3F19F4411101C097
:10432000982F8F5F8630A9F79F3F39F0F901E90F89
:10433000F11D97FDFA95628308950895FC01329668
:1043400008962081261301C010823196E817F907DC
:10435000C1F708950C9484210C949E21FC013196A0
:1043600008961192E817F907E1F7089508950C945B
:10437000B62180911005843061F11092EE0420E4A2
:1043800088E190E00FB6F894A895809360000FBE86
:104390002093600080E00E948F0480E00E9404056A
:1043A0000E94B72183B7817F846083BF83B7816018
:1043B00083BF7894889583B78E7F83BF0FB6F894B8
:1043C000A8958091600088618093600010926000E1
:1043D0000FBE089508950895CF930E94EA210E9488
:1043E000E9090E94EB21C0E08C2F0E949D0A892BD5
:1043F00029F4CF5FC530C1F780E001C081E0CF91E3
:10440000089508950C9401220E942D1B0E94D92228
:104410000E9491150E9404050C9402221F920F9293
:104420000FB60F9211248F939F93AF93BF938091F8
:10443000EE04811113C08091050590910605A091AD
:104440000705B09108054196A11DB11D8093050592
:1044500090930605A0930705B0930805BF91AF910F
:104460009F918F910F900FBE0F901F90189582E033
:1044700084BD93E095BD9AEF97BD80936E0008953B
:104480002FB7F8948091050590910605A091070536
:10449000B09108052FBF0895CF92DF92EF92FF925F
:1044A0000F931F932FB7F89440910505509106057F
:1044B00060910705709108052FBF6A017B01EE240A
:1044C000FF248C0120E030E0C016D106E206F3069E
:1044D00010F4415051099A01281B390BC9011F9151
:1044E0000F91FF90EF90DF90CF90089578941F92F6
:1044F0000F920FB60F9211248F939F93AF93BF9398
:104500008091050590910605A0910705B0910805D9
:104510000196A11DB11D8093050590930605A093FA
:104520000705B0930805BF91AF919F918F910F90B0
:104530000FBE0F901F90189581E08093E00080E2FD
:104540008093D8001092C9008FE19EE40197F1F7A3
:1045500000C0000087E090EBDC0180931905909388
:104560001A05A0931B05B0931C059CE088E10FB6CB
:10457000F894A895809360000FBE90936000FFCFE1
:104580000E944921811102C00E9425210E945421CC
:104590008093ED040E945C2190E090930A05809343
:1045A00009050E945821682F70E080E090E00C948B
:1045B000031F0E944921811102C00E9425210E94EF
:1045C000652180930B05282F269530E02430310596
:1045D00024F08170866080930B0580910B0580FF2D
:1045E00002C0869501C080E00C948F0420910B05D9
:1045F000822F8695482F50E04330510544F48F5F59
:10460000982F990F822F8170892B80930B058091B1
:104610000B05816080930B050E9469218091ED0458
:1046200080FF0FC080910B0586951F928F9386EABD
:1046300095E09F938F930E9478040F900F900F90B6
:104640000F9080910B0586950C948F0480910B053B
:10465000982F969591F09158990F8170892B80939E
:104660000B058E7F91E009F490E080910B0590FBA3
:1046700080F980930B050E9469218091ED0480FFF1
:104680000FC080910B0586951F928F938EE895E061
:104690009F938F930E9478040F900F900F900F902C
:1046A00080910B0586950C948F0480910B05982FB3
:1046B000909590FB80F980930B05813019F483E08D
:1046C00080930B0580910B050E9469218091ED0478
:1046D00080FF0FC080910B0581701F928F9388E738
:1046E00095E09F938F930E9478040F900F900F9006
:1046F0000F9080910B0580FF02C0869501C080E07D
:104700000C948F0490910B05892F86958F5F8F777E
:104710009170843028F4880F892B80930B0502C098
:1047200090930B0580910B058E7F91E009F490E04A
:1047300080910B0590FB80F980930B050E94692105
:104740008091ED0480FF0FC080910B0586951F922C
:104750008F9384E695E09F938F930E9478040F9047
:104760000F900F900F9080910B0586950C948F04FD
:10477000843008F083E0880F90910B059170892BAD
:1047800080930B058E7F91E009F490E080910B05FA
:1047900090FB80F980930B050E94692180910B05A5
:1047A00086950C948F048091FA04089508959FB71C
:1047B000F8941092F1049FBF90911005943009F085
:1047C00057C09091E9009F703091EC00232F217029
:1047D00030FD20E8922B23E02093E9002091EB00AC
:1047E00020FF43C02091EE0027FF3FC02091EF043F
:1047F000222321F02091E80025FF37C01092EF041A
:1048000026E03091E80035FD15C0309110053430B8
:1048100061F53091EB0035FD28C0215021F481E095
:104820008093EF0422C0EFE9FFE03197F1F700C079
:104830000000E7CF8093F1008091E80085FD0AC079
:104840008091E80080FFFCCF8091E8008E77809314
:10485000E80006C08FB7F89421E02093F1048FBFE1
:104860009F709093E90080E008959F709093E90015
:104870008FEF08950F931F93CF93DF9300D01F9274
:10488000CDB7DEB78C010E94BC26823011F0843097
:1048900021F583E089831B830A8382E08093E9000A
:1048A0008FEF9091E800815095FD06C095ED9A95A7
:1048B000F1F700008111F5CF8091E80085FF0DC070
:1048C00040E050E063E070E0CE0101960E94D926FE
:1048D0008091E8008E778093E8000F900F900F9002
:1048E000DF91CF911F910F910895CF93DF9300D067
:1048F0001F92CDB7DEB720911005243029F522E0B4
:104900002983805891099B838A832093E9008FEF44
:104910009091E800815095FD06C095ED9A95F1F7CC
:1049200000008111F5CF8091E80085FF0DC040E0C7
:1049300050E063E070E0CE0101960E94D92680919C
:10494000E8008E778093E8000F900F900F90DF9132
:10495000CF910895CF93DF93EC010E94BC26823063
:1049600011F0843039F581E08093E9009FEF809168
:10497000E800915085FD06C085ED8A95F1F70000AD
:104980009111F5CF8091E80085FF14C040E050E020
:1049900068E070E0CE010E94D9269091E8009E77F1
:1049A0009093E80098E0FE01A2EFB4E001900D9230
:1049B0009A95E1F7DF91CF91089583EE95E00E94FB
:1049C000DF0380910F05811109C00E946E280E94AB
:1049D000CB288091E20084608093E20008958FEDFF
:1049E00095E00E94DF0310920F0508958BED95E08E
:1049F0000C94DF0387ED95E00C94DF0383ED95E0E5
:104A00000E94DF030C9404222091F0042F5F822F78
:104A100062E30E949B2F992319F02093F0040895DC
:104A20001092F0048091F104882371F180911005B7
:104A3000843041F58091E9008F702091EC00922F35
:104A4000917020FD90E8892B93E09093E90090917C
:104A5000EB0090FF14C09091EE0097FF10C0909172
:104A6000E80095FF03C01092F100F9CF9091E800A3
:104A700090FF05C09091E8009E779093E8008F70BA
:104A80008093E9001092F104089542E061EC81E026
:104A90000E94E82742E061EC82E00E94E82742E2BF
:104AA00061EC83E00C94E82780911205833009F4CF
:104AB00053C030F4813071F0823009F48CC0089515
:104AC0008A3009F478C08B3009F45EC0893009F06F
:104AD0009AC020C080911105813A09F094C080915C
:104AE000E800877F8093E800809115059091160576
:104AF000892B21F468E082EF94E003C060E080E05D
:104B000090E070E00E9424278091E8008B778093EA
:104B1000E800089580911105813209F074C08091F8
:104B2000150590911605892B09F06DC08091E8005C
:104B3000877F8093E8008091E80082FD05C0809126
:104B400010058111F8CF5FC08091F1008093FA04C5
:104B50008091E8008B7753C080911105813A09F06C
:104B600052C08091150590911605892B09F04BC014
:104B70008091E800877F8093E8008091E80080FFC3
:104B8000FCCF80915C0336C0809111058132D9F54C
:104B90008091150590911605892BA9F58091E80063
:104BA000877F8093E8000E941D28809113058093E1
:104BB0005C030C942D1B80911105813221F58091AD
:104BC000E800877F8093E8000E941D2880911405EB
:104BD0008093FB04089580911105813AA1F480919E
:104BE000E800877F8093E8008091E80080FFFCCF99
:104BF0008091FB048093F1008091E8008E77809390
:104C0000E8000C941D28089584B7877F84BF0FB6F1
:104C1000F894A8958091600088618093600010925C
:104C200060000FBE80E880936100109261000E94D6
:104C300013160E946E280E94CB288091E2008460A7
:104C40008093E20087ED93E20E94F02078940E9426
:104C5000592B0E94171682E593E00E948C1582EC76
:104C600095E00E94DF0380911005853089F48EEB7A
:104C700095E00E94DF030E94B92180910E058823F0
:104C800091F30E94EC21882371F30E94C326EBCF9D
:104C90000E944716E8CF0C944D26292F3327233046
:104CA0003105C9F064F42130310581F0223031053D
:104CB00009F049C08BE590E02FE036E048C0213292
:104CC000310521F12232310571F13DC082E190E0E0
:104CD0002AE636E03CC099278130910571F02CF42A
:104CE000892B89F5EBE0F6E00DC08230910541F0AB
:104CF000039749F5E7EEF5E005C0EFEFF5E002C0F8
:104D0000EDEEF5E0849190E09F0121C063307105E4
:104D1000D0F4660F771FFB01E651FC4F20813181F3
:104D200089E090E014C06330710568F4FB01EE0F78
:104D3000FF1FEC51FC4F20813181FB01EF51FC4FF3
:104D4000808190E004C080E090E020E030E0FA0153
:104D50003183208308950895CF93C82F0E94AB26F6
:104D6000C093FC04CF91089580911005843011F018
:104D700081E0089582E008958091FC04811102C0D1
:104D80000C94B426089580E189BD82E189BD09B4FF
:104D900000FEFDCF8091D8008F7D8093D800809158
:104DA000E00082608093E0008091E00081FDFCCF14
:104DB0000895CF92DF92EF92FF920F931F93CF93BC
:104DC000DF93EC018B016A010E943C28811133C002
:104DD000C114D10439F0F60180819181081B190BAF
:104DE000C80FD91FE12CF12C0115110519F1809183
:104DF000E80085FD16C08091E8008E778093E8007A
:104E0000C114D10449F0F60180819181E80EF91EA8
:104E1000F182E08285E00FC00E943C28882321F3C4
:104E20000AC089918093F10001501109FFEFEF1A38
:104E3000FF0ADACF80E0DF91CF911F910F91FF90B1
:104E4000EF90DF90CF9008952091170530911805CD
:104E50002617370748F06115710539F42091E800ED
:104E60002E772093E80001C0B90140E0611571057B
:104E7000A9F120911005222309F443C0253009F43B
:104E800042C02091E80023FD40C02091E80022FDAF
:104E900032C02091E80020FFE9CF4091F30020913B
:104EA000F20030E0342BFC01CF016115710559F09F
:104EB0002830310540F481918093F10061507109EF
:104EC0002F5F3F4FF1CF41E02830310509F040E03E
:104ED0002091E8002E772093E800C8CF4111C9CF78
:104EE0000AC080911005882361F0853061F08091BF
:104EF000E80083FD0AC08091E80082FFF2CF80E0E5
:104F0000089582E0089583E0089581E00895209156
:104F10001705309118052617370748F061157105F8
:104F200039F42091E8002E772093E80001C0B90100
:104F3000FC0120E06115710591F180911005882335
:104F400009F440C0853009F43FC08091E80083FD3A
:104F50003DC08091E80082FD2FC08091E80080FF75
:104F6000E9CF2091F3008091F20090E0922B61153F
:104F7000710559F08830910540F424912093F10097
:104F80003196615071090196F2CF21E0089709F03E
:104F900020E08091E8008E778093E800CBCF21114C
:104FA000CCCF0AC080911005882361F0853061F074
:104FB0008091E80083FD0AC08091E80082FFF2CF73
:104FC00080E0089582E0089583E0089581E00895E7
:104FD000982F973058F59093E900981739F0709111
:104FE000EC002091ED005091F00003C0242F762FAB
:104FF00050E021FF19C03091EB003E7F3093EB0071
:105000003091ED003D7F3093ED003091EB00316049
:105010003093EB007093EC002093ED005093F00080
:105020002091EE0027FF07C09F5FD3CF8F70809342
:10503000E90081E0089580E008958091110587FFDF
:1050400011C08091E80082FD05C08091100581119A
:10505000F8CF11C08091E8008B770BC080911005CC
:10506000882349F08091E80080FFF8CF8091E80024
:105070008E778093E80008952091E4003091E50058
:1050800095E64091EC00842F817040FF22C0809112
:10509000E80080FD1CC080911005882391F08530C8
:1050A00091F08091EB0085FD10C04091E40050919B
:1050B000E5004217530729F39A01915011F784E054
:1050C000089582E0089583E0089581E0089580E0E6
:1050D00008954091E80042FFDECF08950E94DC2849
:1050E0000E94E428E0EEF0E0808181608083E8EDBA
:1050F000F0E080818F77808319BCA7EDB0E08C91C0
:105100008E7F8C9380818F7E808310920F0508950F
:105110000F931F93CF93DF930E94DC280E94E42813
:10512000C8EDD0E088818F77888388818068888304
:1051300088818F7D888319BC1092100510920C0510
:1051400010920E0510920D0500EE10E0F80180811E
:105150008B7F808388818160888342E060E080E08B
:105160000E94E827E1EEF0E080818E7F8083E2EE0E
:10517000F0E0808181608083808188608083F80195
:1051800080818E7F8083888180618883DF91CF9149
:105190001F910F910895E8EDF0E080818F7E80836C
:1051A000E7EDF0E080818160808384E082BF81E070
:1051B00080930F050C948828E8EDF0E080818E7FC5
:1051C00080831092E20008951092DA001092E100BC
:1051D00008951F920F920FB60F9211242F933F93B1
:1051E0004F935F936F937F938F939F93AF93BF93EF
:1051F000EF93FF938091E10082FF0BC08091E2006A
:1052000082FF07C08091E1008B7F8093E1000E94C4
:1052100004258091DA0080FF1FC08091D80080FFB4
:105220001BC08091DA008E7F8093DA008091D900D4
:1052300080FF0DC080E189BD82E189BD09B400FE17
:10524000FDCF81E0809310050E94DD2405C019BCCC
:10525000109210050E94EF248091E10080FF19C098
:105260008091E20080FF15C08091E2008E7F8093E4
:10527000E2008091E20080618093E2008091D8009A
:1052800080628093D80019BC85E0809310050E944D
:10529000FA248091E10084FF30C08091E20084FF15
:1052A0002CC080E189BD82E189BD09B400FEFDCF3B
:1052B0008091D8008F7D8093D8008091E1008F7E0F
:1052C0008093E1008091E2008F7E8093E2008091E4
:1052D000E20081608093E20080910C05882311F048
:1052E00084E007C08091E30087FD02C081E001C037
:1052F00083E0809310050E94FE248091E10083FFEB
:1053000029C08091E20083FF25C08091E100877F62
:105310008093E10082E08093100510920C0580914B
:10532000E1008E7F8093E1008091E2008E7F809388
:10533000E2008091E20080618093E20042E060E060
:1053400080E00E94E8278091F00088608093F00060
:105350000E94F624FF91EF91BF91AF919F918F91A1
:105360007F916F915F914F913F912F910F900FBE61
:105370000F901F9018951F920F920FB60F92112445
:105380002F933F934F935F936F937F938F939F934D
:10539000AF93BF93CF93DF93EF93FF93C091E90057
:1053A000CF708091EC00D82FD17080FDD0E81092A2
:1053B000E9008091F000877F8093F00078940E944C
:1053C000FF291092E9008091F00088608093F0003E
:1053D000CD2BCF70C093E900FF91EF91DF91CF917A
:1053E000BF91AF919F918F917F916F915F914F91FD
:1053F0003F912F910F900FBE0F901F9018951F9304
:10540000CF93DF93CDB7DEB7AA970FB6F894DEBF80
:105410000FBECDBFE1E1F5E088E08E0F9091F10085
:1054200091938E13FBCF0E9454258091E80083FF57
:1054300028C18091110590911205492F50E04A3002
:10544000510508F01EC1FA01ED55FF4F0C94F12FE4
:10545000803821F0823809F014C108C080910D0510
:1054600090910E05992389F082600FC080911505F7
:105470008F70873008F005C18093E9008091EB00C0
:1054800085FB882780F91092E9009091E800977FCA
:105490009093E8008093F1001092F100D0C0282F83
:1054A0002D7F09F0EEC0882319F0823061F0E9C049
:1054B00080911305813009F0E4C0933009F080E059
:1054C00080930E052EC08091130581112AC0809112
:1054D00015058F702FEF280F263008F0D2C080936B
:1054E000E9002091EB0020FF1CC0933021F4809153
:1054F000EB00806214C09091EB0090619093EB0000
:1055000021E030E0A90102C0440F551F8A95E2F75F
:105510004093EA001092EA008091EB00886080934B
:10552000EB001092E9008091E800877F8093E8000B
:105530000E941D28A6C08111A4C0109113051F77D9
:105540008091E3008078812B8093E3008091E800D4
:10555000877F8093E8000E941D288091E80080FFEB
:10556000FCCF8091E30080688093E300111102C0BA
:1055700082E001C083E08093100583C080588230B0
:1055800008F07FC080911305909114058C3D53E085
:10559000950779F583E08A838AE289834FB7F89487
:1055A000DE01139620E03EE051E2E32FF0E050935D
:1055B0005700E49120FF03C0E295EF703F5FEF706A
:1055C0008E2F90E0EA3010F0C79601C0C0968D9300
:1055D0009D932F5F243149F74FBF8091E800877F6B
:1055E0008093E8006AE270E0CE0101960E942427D1
:1055F00015C06091150570911605AE014F5F5F4FA4
:105600000E944B26BC01892BE1F19091E800977F25
:105610009093E80089819A810E9487278091E80011
:105620008B778093E8002DC0803859F58091E80091
:10563000877F8093E80080910C058093F100809132
:10564000E8008E7773CF81111CC0909113059230C2
:10565000C0F48091E800877F8093E80090930C0568
:105660000E941D2880910C05811106C08091E300E5
:1056700087FD02C081E001C084E0809310050E9494
:1056800045258091E80083FF0AC08091E800877F6C
:105690008093E8008091EB0080628093EB00AA96F3
:1056A0000FB6F894DEBF0FBECDBFDF91CF911F9133
:1056B0000895CF93809110058823A1F0C091E9004F
:1056C000CF709091EC00892F817090FD80E8C82BFD
:1056D0001092E9008091E80083FD0E94FF29CF70BD
:1056E000C093E900CF9108955058BB27AA270E9484
:1056F0008C2B0C94682D0E945A2D38F00E94612D3D
:1057000020F039F49F3F19F426F40C94572D0EF431
:10571000E095E7FB0C94432DE92F0E94792D58F377
:10572000BA17620773078407950720F079F4A6F586
:105730000C949B2D0EF4E0950B2EBA2FA02D0B018F
:10574000B90190010C01CA01A0011124FF27591BC6
:1057500099F0593F50F4503E68F11A16F040A22FCC
:10576000232F342F4427585FF3CF4695379527953D
:10577000A795F0405395C9F77EF41F16BA0B620B3C
:10578000730B840BBAF09150A1F0FF0FBB1F661F83
:10579000771F881FC2F70EC0BA0F621F731F841FC6
:1057A00048F4879577956795B795F7959E3F08F0EC
:1057B000B0CF9395880F08F09927EE0F97958795AE
:1057C00008950E941F2D08F481E008950E94FA2B8D
:1057D0000C94682D0E94612D58F00E945A2D40F0C3
:1057E00029F45F3F29F00C94432D51110C949C2D0A
:1057F0000C94572D0E94792D68F39923B1F355230A
:1058000091F3951B550BBB27AA27621773078407D3
:1058100038F09F5F5F4F220F331F441FAA1FA9F369
:1058200035D00E2E3AF0E0E832D091505040E69557
:10583000001CCAF72BD0FE2F29D0660F771F881FB8
:10584000BB1F261737074807AB07B0E809F0BB0BAB
:10585000802DBF01FF2793585F4F3AF09E3F5105BF
:1058600078F00C94432D0C949C2D5F3FE4F3983E0C
:10587000D4F3869577956795B795F7959F5FC9F7A8
:10588000880F911D9695879597F90895E1E0660F29
:10589000771F881FBB1F621773078407BA0720F0A2
:1058A000621B730B840BBA0BEE1F88F7E09508950B
:1058B0000E945F2C6894B1110C949C2D08950E9455
:1058C000812D88F09F5798F0B92F9927B751B0F0E4
:1058D000E1F0660F771F881F991F1AF0BA95C9F774
:1058E00014C0B13091F00E949B2DB1E008950C944A
:1058F0009B2D672F782F8827B85F39F0B93FCCF3FD
:10590000869577956795B395D9F73EF490958095F0
:10591000709561957F4F8F4F9F4F0895E89409C010
:1059200097FB3EF490958095709561957F4F8F4FD2
:105930009F4F9923A9F0F92F96E9BB279395F695E8
:10594000879577956795B795F111F8CFFAF4BB0F66
:1059500011F460FF1BC06F5F7F4F8F4F9F4F16C0CA
:10596000882311F096E911C0772321F09EE8872F54
:10597000762F05C0662371F096E8862F70E060E010
:105980002AF09A95660F771F881FDAF7880F969589
:10599000879597F908950E945A2D20F019F00E94DA
:1059A000612D50F40C94572D0C949C2DE92F0E94DE
:1059B000792D88F35523B1F3E7FB6217730784074A
:1059C0009507A8F189F3E92FFF2788232AF031975B
:1059D000660F771F881FDAF7952F5527442332F07B
:1059E00091505040220F331F441FD2F7BB27E91BB1
:1059F000F50B621B730B840BB109B1F222F4620F39
:105A0000731F841FB11D31972AF0660F771F881FFF
:105A1000BB1FEFCF9150504062F041F0882332F02D
:105A2000660F771F881F91505040C1F793950C94D3
:105A3000492D8695779567959F5FD9F7F7CF990F91
:105A40000008550FAA0BE0E8FEEF16161706E80748
:105A5000F907C0F012161306E407F50798F0621B69
:105A6000730B840B950B39F40A2661F0232B242B3E
:105A7000252B21F408950A2609F4A140A6958FEF5D
:105A8000811D811D089597F99F6780E870E060E0AF
:105A900008959F3F31F0915020F487957795679551
:105AA000B795880F911D9695879597F908959FEF63
:105AB00080EC089500240A941616170618060906A5
:105AC000089500240A941216130614060506089574
:105AD000092E0394000C11F4882352F0BB0F40F4FC
